S0120000556562756E67366141322E73726563A2
S11300000C9434000C9451000C9451000C94510045
S11300100C9451000C9451000C9451000C94510018
S11300200C9451000C9451000C9451000C94510008
S11300300C9451000C9451000C9451000C945100F8
S11300400C9451000C9451000C9478010C945100C0
S11300500C9451000C9451000C9451000C945100D8
S11300600C9451000C94510011241FBECFEFD8E022
S1130070DEBFCDBF11E0A0E0B1E0E8EFF9E002C0DF
S113008005900D92AC33B107D9F721E0ACE3B1E0B0
S113009001C01D92A434B207E1F70E9453000C94EE
S11300A0FA040C940000CF93DF93CDB7DEB7A59785
S11300B00FB6F894DEBF0FBECDBF81E1EAE2F1E0F6
S11300C0DE01119601900D928A95E1F7ECE7F0E0DC
S11300D080818064808380818F7780838081807F2A
S11300E08083808181608083EAE7F0E0808180689A
S11300F08083808180648083808187608083E1EC59
S1130100F0E080818068808378940E94C3018981B3
S1130110882351F08E010E5F1F4F0E947001F80179
S113012081918F018111F9CF8AE00E9470010F2E15
S1130130FAE7EF2EF12CF02D0F2EFCE7CF2ED12C69
S1130140F02D0F2EF8E72F2E312CF02D0F2EF8EE78
S11301504F2EF3E05F2E612C712CF02D0F2EF0E268
S11301608F2EF1E09F2EF02D5E01F2E1AF0EB11C57
S1130170F701808180648083F701808186FDFCCF54
S1130180F6018081806480838081806880838FE130
S11301909EE40197F1F700C00000F6018081807FA2
S11301A08083808188608083F7018081806480837C
S11301B0F701808186FDFCCFF10180819181A0E06F
S11301C0B0E080933C0190933D01A0933E01B09335
S11301D03F0120913C0130913D0140913E015091FD
S11301E03F01A2E3B4E00E94ED0160933C017093EF
S11301F03D0180933E0190933F0160913C017091D9
S11302003D0180913E0190913F01A30192010E9422
S1130210CE0120933C0130933D0140933E01509325
S11302203F0180913C0190913D01A0913E01B0912C
S11302303F0180529140A109B10980933C01909300
S11302403D01A0933E01B0933F0180913C01909108
S11302503D01A0913E01B0913F01BF93AF939F93A5
S11302608F939F928F92BF92AF920E9429028A89A4
S11302700FB6F894DEBF0FBECDBF882351F08E01B8
S11302800D5E1F4F0E947001F80181918F01811151
S1130290F9CF84E50E9470018DE00E9470018AE02C
S11302A00E947001F60180818064808380818F7751
S11302B080838FE19EE40197F1F700C00000F6010E
S11302C08081807F8083808181608083FFEF23EC45
S11302D039E0F15020403040E1F700C0000048CF41
S11302E0E0ECF0E0908195FFFDCF8093C600089587
S11302F01F920F920FB60F9211242F933F934F9397
S11303005F936F937F938F939F93AF93BF93EF9379
S1130310FF9380914201853160F080914101811108
S113032006C083E10E94700181E080934101109234
S113033040018091C0008823ACF48091C600E09114
S11303404301F0E0E050FF4F8083809142018F5FD2
S1130350809342018091430190E001968F719078DF
S113036080934301FF91EF91BF91AF919F918F9142
S11303707F916F915F914F913F912F910F900FBE9D
S11303800F901F9018951092C50087E68093C400C3
S1130390E1ECF0E08081886180830895052E97FB6D
S11303A01EF400940E94E50157FD07D00E94F80155
S11303B007FC03D04EF40C94E5015095409530951C
S11303C021953F4F4F4F5F4F0895909580957095BD
S11303D061957F4F8F4F9F4F08950E941A02A59FEA
S11303E0900DB49F900DA49F800D911D112408952C
S11303F0A1E21A2EAA1BBB1BFD010DC0AA1FBB1F25
S1130400EE1FFF1FA217B307E407F50720F0A21B96
S1130410B30BE40BF50B661F771F881F991F1A9403
S113042069F760957095809590959B01AC01BD012D
S1130430CF010895A29FB001B39FC001A39F700D87
S1130440811D1124911DB29F700D811D1124911DD8
S11304500895AEE0B0E0EFE2F2E00C94D1040D892F
S11304601E8986E08C831A8309838FEF9FE79E831E
S11304708D83AE01475E5F4F6F89788DCE01019603
S11304800E944B02EF81F885E00FF11F10822E9637
S1130490E4E00C94ED04ACE0B0E0E1E5F2E00C94AF
S11304A0C3047C016B018A01FC01178216828381DB
S11304B081FFBDC1CE0101964C01F7019381F60184
S11304C093FD859193FF81916F01882309F4ABC15A
S11304D0853239F493FD859193FF81916F018532C3
S11304E029F4B70190E00E943304E7CF512C312C5A
S11304F020E02032A0F48B3269F030F4803259F0DD
S1130500833269F420612CC08D3239F0803339F4A0
S1130510216026C02260246023C0286021C027FDFA
S113052027C030ED380F3A3078F426FF06C0FAE0E1
S11305305F9E300D1124532E13C08AE0389E300D77
S11305401124332E20620CC08E3221F426FD6BC19F
S1130550206406C08C3611F4206802C0883641F449
S1130560F60193FD859193FF81916F018111C1CFB4
S1130570982F9F7D9554933028F40C5F1F4FFFE311
S1130580F9830DC0833631F0833771F0833509F078
S11305905BC022C0F801808189830E5F1F4F442411
S11305A04394512C540115C03801F2E06F0E711CB4
S11305B0F801A080B18026FF03C0652D70E002C061
S11305C06FEF7FEFC5012C870E9428042C01830163
S11305D02C852F77222E17C03801F2E06F0E711C84
S11305E0F801A080B18026FF03C0652D70E002C031
S11305F06FEF7FEFC5012C870E941D042C012C8511
S11306002068222E830123FC1BC0832D90E0481612
S11306105906B0F4B70180E290E00E9433043A94A2
S1130620F4CFF50127FC859127FE81915F01B70185
S113063090E00E94330431103A94F1E04F1A5108CB
S11306404114510471F7E5C0843611F0893639F547
S1130650F80127FF07C060817181828193810C5F5B
S11306601F4F08C060817181882777FD8095982F7E
S11306700E5F1F4F2F76B22E97FF09C0909580957D
S1130680709561957F4F8F4F9F4F2068B22E2AE05F
S113069030E0A4010E946504A82EA81844C0853740
S11306A029F42F7EB22E2AE030E025C0F22FF97F04
S11306B0BF2E8F36C1F018F4883579F0B4C0803776
S11306C019F0883721F0AFC02F2F2061B22EB4FE6D
S11306D00DC08B2D8460B82E09C024FF0AC09F2F43
S11306E09660B92E06C028E030E005C020E130E075
S11306F002C020E132E0F801B7FE07C060817181D9
S1130700828193810C5F1F4F06C06081718180E0FC
S113071090E00E5F1F4FA4010E946504A82EA81844
S1130720FB2DFF77BF2EB6FE0BC02B2D2E7FA514FD
S113073050F4B4FE0AC0B2FC08C02B2D2E7E05C0B6
S11307407A2C2B2D03C07A2C01C0752C24FF0DC0EC
S1130750FE01EA0DF11D8081803311F4297E09C068
S113076022FF06C07394739404C0822F867809F024
S1130770739423FD13C020FF06C05A2C731418F47D
S1130780530C5718732C731468F4B70180E290E08B
S11307902C870E94330473942C85F5CF731410F4C2
S11307A0371801C0312C24FF12C0B70180E390E058
S11307B02C870E9433042C8522FF17C021FF03C01D
S11307C088E590E002C088E790E0B7010CC0822F72
S11307D0867859F021FD02C080E201C08BE227FD3A
S11307E08DE2B70190E00E943304A51438F4B701F8
S11307F080E390E00E9433045A94F7CFAA94F40162
S1130800EA0DF11D8081B70190E00E943304A1102C
S1130810F5CF332009F451CEB70180E290E00E9475
S113082033043A94F6CFF7018681978102C08FEFA3
S11308309FEF2C96E2E10C94DF04FC0105906150DB
S113084070400110D8F7809590958E0F9F1F0895E2
S1130850FC016150704001900110D8F7809590958B
S11308608E0F9F1F08950F931F93CF93DF93182F1D
S1130870092FEB018B8181FD03C08FEF9FEF20C017
S113088082FF10C04E815F812C813D814217530746
S11308907CF4E881F9819F012F5F3F4F39832883DE
S11308A0108306C0E885F985812F0995892B29F7DE
S11308B02E813F812F5F3F4F3F832E83812F902FC7
S11308C0DF91CF911F910F910895FA01AA27283043
S11308D051F1203181F1E8946F936E7F6E5F7F4F09
S11308E08F4F9F4FAF4FB1E03ED0B4E03CD0670F85
S11308F0781F891F9A1FA11D680F791F8A1F911DD8
S1130900A11D6A0F711D811D911DA11D20D009F427
S113091068943F912AE0269F11243019305D319369
S1130920DEF6CF010895462F4770405D4193B3E052
S11309300FD0C9F7F6CF462F4F70405D4A3318F0F9
S1130940495D31FD4052419302D0A9F7EACFB4E0AA
S1130950A6959795879577956795BA95C9F7009762
S11309606105710508959B01AC010A2E0694579503
S1130970479537952795BA95C9F7620F731F841F5A
S1130980951FA01D08952F923F924F925F926F92F0
S11309907F928F929F92AF92BF92CF92DF92EF920B
S11309A0FF920F931F93CF93DF93CDB7DEB7CA1B8C
S11309B0DB0B0FB6F894DEBF0FBECDBF09942A88B7
S11309C0398848885F846E847D848C849B84AA845F
S11309D0B984C884DF80EE80FD800C811B81AA81EC
S11309E0B981CE0FD11D0FB6F894DEBF0FBECDBFB7
S10B09F0ED010895F894FFCF16
S11309F80D000000000000000000000000000000DE
S1130A0800000000000000000000000000000000DA
S1130A18433A256C642020200D0041544D4547413C
S10F0A28206765737461727465740000CB
S9030000FC
