:100000000C9434000C9448000C9446000C9470003E
:100010000C945D000C9446000C9446000C94460031
:100020000C9446000C9446000C9446000C94460038
:100030000C9446000C9446000C9446000C94460028
:100040000C9446000C9446000C9446000C94460018
:100050000C9446000C9446000C9446000C94460008
:100060000C9446000C94460011241FBECFEFD8E03C
:10007000DEBFCDBF21E0A0E0B1E001C01D92A33002
:10008000B207E1F70E948E000C94F5000C9400007A
:100090001F920F920FB60F9211248F93809102013D
:1000A000811105C081E080930201109201018F91BE
:1000B0000F900FBE0F901F9018951F920F920FB6C2
:1000C0000F9211248F9380910101811103C081E06F
:1000D000809301018F910F900FBE0F901F90189584
:1000E0001F920F920FB60F921124109200010F90E1
:1000F0000FBE0F901F90189589B185FB882780F956
:100100004E998E5F4F998C5F0895647F80FD626089
:1001100081FD616082FD6860862F08958AB18B60E1
:100120008AB9209A8BB1846F8BB9409AE9E6F0E0E6
:1001300080818C7F8083808183608083E89AE8E679
:10014000F0E0808183608083ECE6F0E08081816074
:100150008083EBE6F0E08081816080837894D1E059
:10016000CDEC809100018F3419F485B18D2785B9CC
:100170008091010181112FC080910201882359F0E3
:100180000E947C00880F982F990F990F890F8093F8
:10019000000110920201809100018C9F912D112489
:1001A000969596959695990F292F220F220F920FCB
:1001B00089130CC06BB1809100018C9F812D11249B
:1001C0008695869586950E9485008BB98091000161
:1001D0008F5F809300012FEF81EE94E021508040EB
:0E01E0009040E1F700C00000BCCFF894FFCFC4
:00000001FF
