S0110000556562756E673441312E7372656307
S11300000C9434000C9451000C9451000C94510045
S11300100C9451000C9451000C9451000C94510018
S11300200C9451000C9451000C9451000C94510008
S11300300C9451000C9461010C9451000C945100E7
S11300400C9451000C9451000C945B000C945100DE
S11300500C9451000C9451000C9451000C945100D8
S11300600C9451000C94510011241FBECFEFD8E022
S1130070DEBFCDBF11E0A0E0B1E0EAE3F5E002C0ED
S113008005900D92A83DB107D9F722E0A8EDB1E0A3
S113009001C01D92AE32B207E1F70E942B020C940C
S11300A09B020C940000E0ECF0E0908195FFFDCF02
S11300B08093C60008951F920F920FB60F921124D9
S11300C02F933F934F935F936F937F938F939F935C
S11300D0AF93BF93EF93FF938091DA01853160F082
S11300E08091D901811106C083E10E94530081E00F
S11300F08093D9011092D8018091C0008823ACF478
S11301008091C600E091DC01F0E0E050FF4F808375
S11301108091DA018F5F8093DA018091DC0190E0B5
S113012001968F7190788093DC01FF91EF91BF91DC
S1130130AF919F918F917F916F915F914F913F917B
S11301402F910F900FBE0F901F9018951092C5001D
S113015087E68093C400E1ECF0E0808188618083CD
S113016008958091DA01803150F48091D801811191
S113017006C081E10E94530081E08093D801809100
S1130180DA018823A9F0E091DB01F0E0E050FF4FB1
S113019080812091DB0130E02F5F3F4F2F71307859
S11301A02093DB019091DA0191509093DA01089544
S11301B080E008950E94B100811104C00E94B10042
S11301C08823E1F30895EFE08E9FC0011124FC0120
S11301D0ED51FE4F108245835683678370873287C3
S11301E02187118212821382148208952FE0829F44
S11301F0C0011124FC01ED51FE4F438754876587EC
S1130200768781E080830895AF92BF92CF92DF9288
S1130210EF92FF920F931F93CF93DF936B017C01B7
S1130220C0E0D0E01FE001E01C9FF0011D9FF00D35
S11302301124ED51FE4F8081882399F11C9FF00118
S11302401D9FF00D1124ED51FE4F83859485A585E6
S1130250B685A7019601281B390B4A0B5B0B21833A
S113026032834383548341815281638174818581C4
S11302709681A781B085481759076A077B0788F0DC
S11302805F010184F285E02D0995F5011082C19F7B
S1130290F0011124ED51FE4FC386D486E586F6861F
S11302A000832196C430D10509F0BECFDF91CF91F0
S11302B01F910F91FF90EF90DF90CF90BF90AF9080
S11302C008951F920F920FB60F9211242F933F930C
S11302D04F935F936F937F938F939F93AF93BF934A
S11302E0EF93FF9386E39FEF9093850080938400C0
S11302F08091DD019091DE01A091DF01B091E001D8
S1130300BC01CD016F5F7F4F8F4F9F4F6093DD0125
S11303107093DE018093DF019093E0010E94040159
S1130320FF91EF91BF91AF919F918F917F916F91C9
S11303305F914F913F912F910F900FBE0F901F909F
S113034018956D7C80FD606281FD606182FD626054
S1130350862F089580912101883010F01092210198
S11303608091E101811117C08091E201882341F05D
S11303709091200187E3891B809321011092E2016F
S113038068B1809121010E94A10188B98091210165
S11303908F5F80932101089581E08093E101909122
S11303A0210188E3891B0E94530008950F931F9332
S11303B0CF93DF93CDB7DEB7AA970FB6F894DEBF1D
S11303C00FBECDBF0E94CC0189E1E2E2F1E0DE0183
S11303D0119601900D928A95E1F78981882351F055
S11303E08E010E5F1F4F0E945300F80181918F010F
S11303F08111F9CF0E94DA008093200181E1EBE3BF
S1130400F1E0DE015A9601900D928A95E1F78A8D0A
S1130410882351F08E01055E1F4F0E945300F8019E
S113042081918F018111F9CF809120010E945300A5
S113043081E08093E201AA960FB6F894DEBF0FBE66
S1130440CDBFDF91CF911F910F910895809120012D
S11304500E9453000895CF93DF93CDB7DEB7CC58F5
S1130460D1090FB6F894DEBF0FBECDBF87B182634A
S113047087B986E39FEF9093850080938400E1E839
S1130480F0E08081887F8083808182608083EFE6D2
S1130490F0E08081816080835A9A409AE1ECF0E038
S11304A080818068808378942AEA31E040E157E2D1
S11304B060E070E080E00E94E30040E050E0BA01B8
S11304C080E00E94F6008CE8ECE4F1E0DE01119695
S11304D001900D928A95E1F70E94A60089818823F4
S11304E051F08E010E5F1F4F0E945300F80181915D
S11304F08F018111F9CF0E94DA00182F0E94530056
S1130500123661F018F4113631F011C0133649F087
S1130510143651F00CC01092E101EDCF0E94CC01D1
S1130520EACF0E94D601E7CF0E942602E4CF82E5FB
S10D05300E945300E0CFF894FFCFBF
S113053A0D000000000000000000000000000000A0
S113054A000000000000000000000000000000009D
S113055A300120676962206465696E65205374619D
S113056A72747A6569742065696E002053746172C5
S113057A747A65697420697374203A0048696572EB
S113058A2041546D656565656565656567613F20EC
S113059A0920312E2046FC722053746F70707568DE
S11305AA72205374617274656E200920322E2053AE
S11305BA746F70707568722053746F7070656E20F2
S11305CA0920332E2053746172747A656974204544
S11305DA696E7374656C6C656E200920342E204133
S11305EA6B7475656C6C2065696E67657374656C8C
S11305FA6C7465205374617274657A6569742061D8
S10B060A7573676562656E00FB
S9030000FC
