S0110000556562756E673541322E7372656305
S11300000C9489000C94A6000C94A6000C94A600F1
S11300100C94A6000C94A6000C94A6000C94A600C4
S11300200C94A6000C94A6000C94A6000C94A600B4
S11300300C94A6000C9426010C94A6000C94A60023
S11300400C94A6000C94A6000C9458020C94A600E0
S11300500C94A6000C94A6000C94A6000C94A60084
S11300600C94A6000C94A60053746172747A6569AA
S1130070742065696E676562656E00005374617211
S1130080747A65697420697374203A00004869655C
S1130090722041546D6567613F200A20312E205340
S11300A0746F7070756872205374617274656E2019
S11300B00A20322E2053746F707075687220537446
S11300C06F7070656E200A20332E20537461727431
S11300D07A6569742045696E7374656C6C656E200D
S11300E00A20342E20416B7475656C6C2065696E32
S11300F067657374656C6C746520537461727465A0
S11301007A65697420617573676562656E200A009B
S1130110000011241FBECFEFD8E0DEBFCDBF11E039
S1130120A0E0B1E0E0EFF5E002C005900D92A2324C
S1130130B107D9F721E0A2E2B1E001C01D92A937CD
S1130140B207E1F70E94E2010C94F6020C9400005D
S1130150EFE08E9FC0011124FC01E25DFE4F10828E
S11301604583568367837087328721871182128281
S11301701382148208952FE0829FC0011124FC0190
S1130180E25DFE4F438754876587768781E08083ED
S11301900895AF92BF92CF92DF92EF92FF920F93A6
S11301A01F93CF93DF936B017C01C0E0D0E01FE08D
S11301B001E01C9FF0011D9FF00D1124E25DFE4F34
S11301C08081882399F11C9FF0011D9FF00D11245B
S11301D0E25DFE4F83859485A585B685A7019601CA
S11301E0281B390B4A0B5B0B2183328343835483D3
S11301F0418152816381748185819681A781B08513
S1130200481759076A077B0788F05F010184F28564
S1130210E02D0995F5011082C19FF0011124E25DE2
S1130220FE4FC386D486E586F68600832196C430C5
S1130230D10509F0BECFDF91CF911F910F91FF90AF
S1130240EF90DF90CF90BF90AF9008951F920F92E0
S11302500FB60F9211242F933F934F935F936F9395
S11302607F938F939F93AF93BF93EF93FF9386E313
S11302709FEF909385008093840080912201909158
S11302802301A0912401B0912501BC01CD016F5F30
S11302907F4F8F4F9F4F6093220170932301809370
S11302A02401909325010E94C900FF91EF91BF9111
S11302B0AF919F918F917F916F915F914F913F91FA
S11302C02F910F900FBE0F901F9018956D7C80FD9D
S11302D0606281FD606182FD6260862F0895809175
S11302E00101883010F010920101809127018111E1
S11302F021C080912801882391F09091000187E327
S1130300891B8093010180910101809326016091F2
S1130310260180E090E00E94E8021092280168B172
S1130320809101010E94660188B9809101018F5F6B
S113033080930101089581E0809327019091010148
S113034088E3891B0E9450020895CF93DF930E9493
S11303509B01E8E6F0E08491882371F0C9E6D0E0DF
S113036084910E945002FE012491CE010196222321
S113037019F0FE01EC01F4CF0E94D7028093000132
S1130380ECE7F0E08491882371F0CDE7D0E084912C
S11303900E945002FE012491CE010196222319F0FD
S11303A0FE01EC01F4CF809100010E94500281E033
S11303B080932801DF91CF910895809100010E94DC
S11303C05002089587B1826387B986E39FEF9093C3
S11303D0850080938400E1E8F0E08081887F808359
S11303E0808182608083EFE6F0E080818160808399
S11303F05A9A409AE1ECF0E0808180688083789496
S11304002FE631E040E157E260E070E080E00E94D6
S1130410A80040E050E0BA0180E00E94BB0080E008
S113042090E00E94E002809326019091260187E3E8
S1130430891B809300010E94A302EDE8F0E08491FF
S1130440882371F0CEE8D0E084910E945002FE012E
S11304502491CE010196222319F0FE01EC01F4CF80
S11304600E94D702C82F0E945002C23661F018F4CD
S1130470C13631F011C0C33649F0C43651F00CC056
S113048010922701EDCF0E949B01EACF0E94A501A3
S1130490E7CF0E94DD01E4CF82E50E945002E0CF65
S11304A0E0ECF0E0908195FFFDCF8093C6000895C5
S11304B01F920F920FB60F9211242F933F934F93D5
S11304C05F936F937F938F939F93AF93BF93EF93B8
S11304D0FF9380912B01853160F080912A01811175
S11304E006C083E10E94500281E080932A011092A9
S11304F029018091C0008823ACF48091C600E0916A
S11305002D01F0E0EE5FFE4F808380912B018F5F21
S113051080932B0180912D0190E001968F7190784A
S113052080932D01FF91EF91BF91AF919F918F9196
S11305307F916F915F914F913F912F910F900FBEDB
S11305400F901F9018951092C50087E68093C40001
S1130550E1ECF0E0808188618083089580912B0133
S1130560803150F480912901811106C081E10E94FB
S1130570500281E08093290180912B018823A9F006
S1130580E0912C01F0E0EE5FFE4F808120912C0180
S113059030E02F5F3F4F2F71307820932C019091E2
S11305A02B01915090932B01089580E008950E94AF
S11305B0AE02811104C00E94AE028823E1F30895C3
S11305C0F999FECF92BD81BDF89A992780B5089517
S11305D0262FF999FECF1FBA92BD81BD20BD0FB65B
S11305E0F894FA9AF99A0FBE01960895F894FFCFF9
S11305F030010D00000000000000000000000000B9
S113060000000000000000000000000000000000E6
S10506100000E4
S9030000FC
