:100000000C9434000C9451000C9451000C94510049
:100010000C9451000C9451000C9451000C9451001C
:100020000C9451000C9451000C9451000C9451000C
:100030000C9451000C9400010C9451000C9451004C
:100040000C9451000C9451000C9451000C945100EC
:100050000C9451000C9451000C9451000C945100DC
:100060000C9451000C94510011241FBECFEFD8E026
:10007000DEBFCDBF11E0A0E0B1E0E2E5F3E002C0F9
:1000800005900D92A430B107D9F721E0A4E0B1E0CA
:1000900001C01D92A735B207E1F70E946C010C94D4
:1000A000A7010C940000EFE08E9FC0011124FC0119
:1000B000E45FFE4F108245835683678370873287E3
:1000C0002187118212821382148208952FE0829F69
:1000D000C0011124FC01E45FFE4F4387548765870C
:1000E000768781E080830895AF92BF92CF92DF92AE
:1000F000EF92FF920F931F93CF93DF936B017C01DD
:10010000C0E0D0E01FE001E01C9FF0011D9FF00D5A
:100110001124E45FFE4F8081882399F11C9FF00138
:100120001D9FF00D1124E45FFE4F83859485A58506
:10013000B685A7019601281B390B4A0B5B0B21835F
:1001400032834383548341815281638174818581E9
:100150009681A781B085481759076A077B0788F001
:100160005F010184F285E02D0995F5011082C19FA0
:10017000F0011124E45FFE4FC386D486E586F6863F
:1001800000832196C430D10509F0BECFDF91CF9115
:100190001F910F91FF90EF90DF90CF90BF90AF90A5
:1001A00008954A9B04C081E0809309010FC010921A
:1001B000090180910201813049F480910901811186
:1001C00005C010920A0181E080930B018091090122
:1001D00080930201309B04C081E0809308010BC032
:1001E000109208019091010180910801981719F06F
:1001F00081E080930A0180910801809301010895B4
:100200001F920F920FB60F9211242F933F934F938B
:100210005F936F937F938F939F93AF93BF93EF936E
:10022000FF9386E39FEF90938500809384008091F5
:10023000040190910501A0910601B0910701BC0154
:10024000CD016F5F7F4F8F4F9F4F6093040170937D
:10025000050180930601909307010E947400FF91AD
:10026000EF91BF91AF919F918F917F916F915F912E
:100270004F913F912F910F900FBE0F901F901895A7
:1002800089B185FB882780F94E998E5F4F998C5FE5
:100290000895647F80FD626081FD616082FD686019
:1002A000862F089580910A01811115C080910B015C
:1002B000882331F00E9440018093000110920B01CD
:1002C0006BB1809100010E9449018BB980910001BE
:1002D0008F5F8093000108958AB18B608AB9209A5C
:1002E00086E39FEF9093850080938400E1E8F0E03F
:1002F0008081887F8083808182608083EFE6F0E068
:100300008081816080838BB1846F8BB9409A7894AF
:1003100022E531E040E157E260E070E080E00E94D9
:10032000530021ED30E044EF51E060E070E081E007
:100330000E94530040E050E0BA0180E00E94660055
:1003400040E050E0BA0181E00E946600FFCFF894DF
:02035000FFCFDD
:0403520001010100A4
:00000001FF
