S0140000454D5F556562756E673141312E7372656316
S11300000C943C000C9459000C9459000C94590025
S11300100C9459000C9459000C9459000C945900F8
S11300200C9459000C9459000C9459000C945900E8
S11300300C9459000C9459000C9459000C945900D8
S11300400C9459000C9459000C9459000C945900C8
S11300500C9459000C9459000C9459000C945900B8
S11300600C9459000C94590067006E0075007C00D4
S113007083008A009100980011241FBECFEFD8E0BE
S1130080DEBFCDBF11E0A0E0B1E0ECEDF1E002C0D5
S113009005900D92A83BB107D9F721E0A8EBB1E098
S11300A001C01D92AE3BB207E1F70E94A0000C9480
S11300B0EC000C940000CF93C62F482F50E048303A
S11300C05105D8F5FA01EC5CFF4F0C94B90080E0BF
S11300D091E00E94BF0082E0C8272FC087E191E031
S11300E00E94BF0086E0C82728C08EE291E00E94EB
S11300F0BF0082E0C82721C085E491E00E94BF00D0
S11301008EE0C8271AC08CE591E00E94BF0082E00F
S1130110C82713C083E791E00E94BF0086E0C82788
S11301200CC08AE891E00E94BF0082E0C82705C0A5
S113013081EA91E00E94BF00C1EF8C2FCF91089516
S11301408AB18E608AB9C7E0D7E001C0CD2F6BB108
S11301508C2F0E945B008BB92FEF83ED90E321502D
S113016080409040E1F700C00000CC2379F3C150F7
S1130170EECFEE0FFF1F0590F491E02D09940F933D
S11301801F93CF93DF93E091BA01F091BB012381D8
S113019021FF1BC0EC0100E010E089916091BA01DD
S11301A07091BB01DB011896ED91FC91199788239E
S11301B031F00995892B89F30FEF1FEFEECF8AE019
S11301C00995892B11F4C80102C08FEF9FEFDF91CD
S10F01D0CF911F910F910895F894FFCF78
S11301DC46616C6C20303A20436F756E74657220E6
S11301EC69737420302E0046616C6C20313A2043C4
S11301FC6F756E7465722069737420312E004661BC
S113020C6C6C20323A20436F756E7465722069737E
S113021C7420322E0046616C6C20333A20436F7587
S113022C6E7465722069737420332E0046616C6C95
S113023C20343A20436F756E746572206973742090
S113024C342E0046616C6C20353A20436F756E7405
S113025C65722069737420352E0046616C6C2036EF
S113026C3A20436F756E7465722069737420362E50
S113027C0046616C6C20373A20436F756E7465725E
S10B028C2069737420372E0071
S9030000FC
