:100000000C9434000C943E000C943E000C943E0082
:100010000C943E000C943E000C943E000C943E0068
:100020000C943E000C943E000C943E000C943E0058
:100030000C943E000C943E000C943E000C943E0048
:100040000C943E000C943E000C943E000C943E0038
:100050000C943E000C943E000C943E000C943E0028
:100060000C943E000C943E0011241FBECFEFD8E04C
:10007000DEBFCDBF0E9452000C94A5000C9400007E
:1000800089B185FB882780F94E998E5F4F998C5FE7
:100090000895617F80FD626081FD646082FD68601B
:1000A000862F08958AB18E608AB985B1836085B93B
:1000B0008BB1806E8BB9F12C00E0C0E0D0E00F2E48
:1000C000FDECEF2EF02DD12C11E0D1111CC0CE9DF6
:1000D000812D1124869586958695880F982F990FE6
:1000E000990F890FC8130AC06BB1CE9D812D1124C1
:1000F0008695869586950E9449008BB9CF3411F07C
:10010000CF5F01C0CD2D189903C0011103C004C0F9
:10011000012F02C00D2DD12F19990CC0FF2059F0CD
:100120000E944000880FC82FCC0FCC0FC80FFD2CA9
:10013000DD2D01C0F12E2FEF81EE94E021508040A3
:0E0140009040E1F700C00000C0CFF894FFCF60
:00000001FF
